:1000000010308A0000280000FF00030E8301A100C9
:100010000A08A0008A010408A2007708A300780853
:10002000A4007908A5007A08A60003170D08031399
:10003000A70003170F080313A80003170C080313E6
:10004000A90003170E080313AA00831383128C3030
:100050008400801E2D288C1A4E2822088400230834
:10006000F7002408F8002508F9002608FA002708F8
:1000700003178D000313280803178F0003132908A3
:1000800003178C0003132A0803178E00031320089C
:100090008A00210E8300FF0E7F0E09008A110A12CA
:1000A00074280A108A100A11820728340F34013488
:1000B00006344334613464346134733474347234D8
:1000C000613472340034443465346C3465347434CF
:1000D000613472340034003400344534643469349B
:1000E000743461347234003431302C07840083134B
:1000F0008C1E78281A08800031302C078400831366
:100100000008AE00AC0A2C083C3C031CAC012E08D5
:10011000433C031D8E28ED14B001AC01ED1C972863
:100120003008B00A073C031897286D14ED102E080C
:100130004B3C031D9E286D17B001AC016D1FA72815
:100140003008B00A073C0318A728ED176D132E08D6
:10015000443C031DAF28ED15B001AC01B828ED1DDE
:10016000B8283008B00A013C0318B8286D15ED1105
:100170002E08533C031DC028ED16B001AC01C92860
:10018000ED1EC9283008B00A023C0318C9286D16B4
:10019000ED128C128A110A122D280C21E134F8304C
:1001A0006E326F10422200000C22E933693A65106A
:1001B0004922BA0600008C244410F030F23020228C
:1001C0006536653A6139BA0600018C21E136F037AF
:1001D000203B613DE93700018C244410EE306F1064
:1001E000653CE939F43200018C244410F030F230DF
:1001F000A032E434F430721D0D008C21E136F0376A
:10020000203B613DE93700018C244410EE306F1033
:10021000653CE939F43200018C206C3A653961396A
:10022000A029F430F43A731D0D000C104532693AE0
:1002300061326F000C21E134F8306E326F104222CF
:1002400000018C296136F63721100D000C22E933AC
:10025000693A65104922BA0600018C216132E13900
:1002600074396F056533653AF530E43700000C22C8
:100270006536653A6137E437A03AF33A6139E937D0
:1002800000010C10C432EC32F430E43721000C22AF
:10029000E933693A6510D0244E1D0D008C2AF33ADB
:1002A0006139E9372037E1378D32F834733A650028
:1002B0000C22E933693A6510D0244E1D0D000C1054
:1002C000C432EC32F430E43721008C22E434F430D0
:1002D0006E326F10D539F530F2346F000C23693768
:1002E0006136693D6132EF1000010C22E933693A51
:1002F000651049223A100D008C244410EE306F1026
:10030000653CE939F4322E000C22E933693A651074
:1003100049223A100D000C22E933693A651049224E
:100320003A100D008C21E136F037A0326D104239C1
:100330006137E3372E000C22E933693A6510492210
:100340003A100D008C244410EA30A032F834733A8D
:1003500065000C284927BA0600010C10D3326E3410
:1003600061106F31F234E730F437F23461000C2859
:100370004927BA0600010C22E933693A651049227F
:10038000BA0600000C22E933693A6510D0244E1DEC
:100390000D008C24EE34E3346137E4372E172E0041
:1003A0000C22E53A203A75326F106539F230E437A5
:1003B00000008C244410EE306F10653CE939F432B3
:1003C00000018C20E332F339EF06C13AF437F234FE
:1003D000FA30E43721008C216132E13974396F1031
:1003E000453CF034F230E43700010C284927A034B2
:1003F000EE316F39F232F43700008C20E332F339FA
:100400006F10D232733AF234F43700010C27E53121
:10041000E539F330F2346F10CC37E73072008C24BA
:100420004410EE306F10653CE939F43220000C289E
:100430004927A022723961326F008C20E332F339F0
:100440006F10C13AF437F234FA30E43700010C2966
:1004500065326939E531E937EE30F206C330E43010
:10046000733AF23700010C2965326939E531E93711
:10047000EE307210C432EC32F43072000C29653266
:100480006939E531E937EE307210C432EC32F430BC
:1004900072008C29E536A020C42600018C2161322F
:1004A000E13974396510E1336F396100AB152B0800
:1004B0008316870083122B162B088316870083125E
:1004C0008A110A167E284430840083170008031915
:1004D000762A0630F800F701F70B6C2AF80B6B2A26
:1004E0007B30F700F70B722A800B692A080003178C
:1004F0004B187E2A03130812802A031703130816C9
:100500008316081283120317CB188A2A0313881242
:100510008C2A031703138816831688128312031775
:100520004B19962A03130813982A03170313081765
:100530008316081383120317CB19A22A03138813F7
:10054000A42A0317031388178316881389108312AC
:1005500089148316891083128910080083160911E3
:10056000831209110317C808031DBA2A03130911BE
:10057000BC2A03170313091583160911A630F700C7
:10058000F70BC02A00008910831289100317490E47
:10059000CA000F30CA054A08CB000313772203179D
:1005A00049080F39CA00CB000313772208008316CD
:1005B0000812831208128316881283128812831677
:1005C0000813831208138316881383128813831663
:1005D00009118312091183168910831289100F30B3
:1005E0000317C4000313632201308316BA003A08CC
:1005F000033C031C092B033083120317CB000313A6
:10060000772205300317C400031363228316BA0A46
:10061000F72A023083120317CB00031377228316C5
:10062000BA013A08033C031C282B3A0883125120D4
:100630008316BB0083120317C801831603133B08FC
:1006400083120317C9000313AE228316BA0A112BB3
:1006500083128A110A168128031743080C3A0313E0
:1006600003193C2B063A0319482B073A0319482B68
:10067000053A0319602B672B0317C8010130C90025
:100680000313AE2202300317C400031363226E2B40
:1006900001300317C4000230C500450B502B532B0B
:1006A0004030C600542BC60101304402C60746083C
:1006B0008038C700C8014708C9000313AE226E2B5B
:1006C0000317C8011030C9000313AE226E2B01308E
:1006D0000317C8004308C9000313AE2208000B0823
:1006E0000317C00003138B13831603178C170C1406
:1006F000000000008312C01F802B03138B17031709
:100700000C087F390319BD2BC0000D08C1000F086C
:10071000C2004008C30003132C23031741088D00B7
:1007200042088F0003130B080317C30003138B1336
:10073000831603178C170C14000000008312C31FCC
:10074000A42B03138B1703170C0D0E0D7F39031900
:10075000BD2BC0000D08C1000F08C2004008C30037
:1007600003132C23031741088D0042088F008D0AC4
:1007700003198F0A03136F2B031703130800831643
:10078000BE013E08073C031CCD2BA0303E07840071
:100790008313FF308000BE0AC12B8312080008308B
:1007A000F8000430F700F70BD32B8711AB112B089F
:1007B000831687000330F700F70BDC2B8312031737
:1007C000C40D03130712031CEB2B2B162B088316E7
:1007D0008700EF2B83122B122B0883168700000053
:1007E0008312AB152B08831687008312871DF62B07
:1007F000F80BD12B0430F700F70BFC2B8711AB1152
:100800002B0883168700000083122B162B088316F3
:1008100087000330F700F70B0B2C0330F700F70BC2
:100820000F2C8312AB152B08831687008312871DAC
:10083000172CF8010330F700F70B1C2C071A78145B
:100840008711AB112B0883168700831207122B1216
:100850002B0883168700831208002B162B0883169B
:1008600087000430F700F70B332C8312AB152B08ED
:10087000831687000330F700F70B3C2C8312071216
:100880002B122B08831687000430F700F70B462C39
:1008900083128711AB112B0883168700A0308312B7
:1008A0000317C4000313CF237808031743107818E5
:1008B000431403132B122B088316870000008312A6
:1008C000AB152B08831687008312871D652C043017
:1008D000F700F70B692C6C2C00002B162B088316E5
:1008E00087000430F700F70B732C003083120317D6
:1008F000431C0130F800031308002D24F8080319E5
:100900007D2C2B162B08831687000430F700F70B7D
:10091000872C8312AB152B08831687000330F70052
:10092000F70B902C831207122B122B0883168700CB
:100930000430F700F70B9A2C83128711AB112B08A8
:1009400083168700A03083120317C4000313CF233C
:1009500003174108C4000313CF2303174208C40040
:100960000313CF232B122B0883168700000083125A
:10097000AB152B08831687008312871DBD2C04300E
:10098000F700F70BC12CC42C00002B162B08831684
:1009900087000430F700F70BCB2C831208002D24BE
:1009A000F8080319CF2C2B162B0883168700043068
:1009B000F700F70BD92C8312AB152B088316870091
:1009C0000330F700F70BE22C831207122B122B08CF
:1009D000831687000430F700F70BEC2C8312871185
:1009E000AB112B0883168700A03083120317C400B5
:1009F0000313CF2383164A0883120317C40003137B
:100A0000CF232B162B08831687000430F700F70B33
:100A1000072D8312AB152B08831687000330F700D0
:100A2000F70B102D8312871D132D07122B122B0885
:100A3000831687000430F700F70B1C2D83128711F3
:100A4000AB112B0883168700A13083120317C40053
:100A50000313CF23F70108308316CD007708CE00AB
:100A600083122B162B08831687000330F700F70B31
:100A7000372D8312AB152B08831687008312871D31
:100A80003F2D071A0314071E0310F80D0430F7005A
:100A9000F70B482DAB112B088316870083128711A3
:100AA0008316CD0B302D83122B162B08831687004F
:100AB0000330F700F70B5A2D8312071283164E08E6
:100AC0000319672D83122B122B0883168700000051
:100AD0008312AB152B08831687008312871D6E2D9A
:100AE0000430F700F70B722D8711AB112B0883161A
:100AF00087000330F700F70B7B2D831207122B12B0
:100B00002B08831687007808CB0083122B122B0842
:100B10008316870000008312AB152B08831687000D
:100B20008312871D912D0430F700F70B952D982D1A
:100B300000002B162B08831687000430F700F70BF4
:100B40009F2D4B08F800831208001A3003178D0000
:100B500001308F0003136F2308308316C500FA306D
:100B600083120317C400031363228316C50BAF2D32
:100B7000C501C6014608CA008312CF24780883162F
:100B8000C500450FC42DD22D4508783C0319D22D40
:100B90000830C6074608CA008312CF247808831697
:100BA000C500C12DFA014608F8007A08F900780856
:100BB000C200C40183126D1C0F2E83164208C300AD
:100BC0000730420743020319E72D0318FD2D31308A
:100BD0004407840083130008C500430883120317E9
:100BE000C10083160313450883120317C2000313C1
:100BF0007D248316C40AC30AE02D83126D102130B0
:100C000003178D0001308F0003136F232630031765
:100C10008D0001308F0003136F233C2E3C2E831672
:100C20004208C3000730420743020319192E031874
:100C30002F2EA0304407840083130008C50043080A
:100C400083120317C1008316031345088312031789
:100C5000C20003137D248316C40AC30A122E2D304A
:100C6000831203178D0001308F0003136F2364304C
:100C70000317C40003136322080001308316C40065
:100C8000C500C601C608031D8F2EF0018312EF01B7
:100C9000F008031D772E6F08023C031C772E831685
:100CA000450DF700F70DF70DF830F70577088312BB
:100CB0006F078316C8007008C9000318C90A4808DE
:100CC000CA008312CF2478088316C80031308312FB
:100CD0006F07840083137018831700088316480277
:100CE000031DC4018312EF0A0319F00A482E83166C
:100CF000C4080319842E0130C600450DF400F40D1C
:100D0000F40DF830F405872E0130C400C50A4508FB
:100D1000413C031D8E2E0130C600C401422E440802
:100D2000F800831208008316BF013F08023C031C31
:100D3000A12EA0303F0784008313FF308000BF0A3C
:100D4000952EBB30831203178D0001308F000313E3
:100D50006F2308008B3003178D0001308F000313C1
:100D60006F23EE018316BE01BE08031D7A2F8A157C
:100D7000831200208A117808F2007208413A0319A0
:100D8000C82E023A0319602F693A0319632F682F9E
:100D9000EE08031DE72E923003178D0001308F00FF
:100DA00003136F2304308316BF00FA308312031736
:100DB000C400031363228316BF0BD52E9B3083120E
:100DC00003178D0001308F0003136F23602F7B0BFF
:100DD0005B2F01308316BF00C001C100C008031D96
:100DE0003B2FF0018312EF01F008031D232F6F0842
:100DF000023C031C232F8316410DF700F70DF70D5E
:100E0000F830F705770883126F078316C200700861
:100E1000C3000318C30A4208CA008312CF2478080B
:100E20008316C200A03083126F07840083137018EA
:100E30008317000883164202031DBF018312EF0AC5
:100E40000319F00AF42E8316BF080319302F01305E
:100E5000C000410DF400F40DF40DF830F405332F0B
:100E60000130BF00C10A4108413C031D3A2F013047
:100E7000C000BF01EE2E3F08F800780B572FA230BC
:100E8000831203178D0001308F0003136F2304308A
:100E90008316BF00FA3083120317C40003136322C2
:100EA0008316BF0B4A2F8312AA2E5A2F83160130A6
:100EB000BE0083125F2F01308316BE008312782F8D
:100EC000EE019326782F01308316BE00F3008312C3
:100ED0006E08023C031C782F72080317C30003132B
:100EE0002C23A0306E078400831372088000EE0A62
:100EF0008316B42E831208000330EE008316BE0161
:100F0000A930831203178D0001308F0003136F2364
:100F10008316BE08031DEB2F8A15831200208A1149
:100F20007808F2007208413A03199A2F023A03191D
:100F3000BF2FD92F6E08033C031CBA2FAD30031707
:100F40008D0001308F0003136F2304308316BF0020
:100F5000FA3083120317C400031363228316BF0BF6
:100F6000A82FB730831203178D0001308F000313B1
:100F70006F23BE2F01308316BE008312E92F03308A
:100F8000EE0003308316BF003F08063C031CD02F41
:100F9000A0303F0784008313FF308000BF0AC42FB6
:100FA000C230831203178D0001308F0003136F23AB
:100FB000E92F6E08063C031CE92F72080317C300D3
:100FC00003132C23A0306E07840083137208800063
:0A0FD000EE0A882F83168312080032
:10100000FF308316C100410FD72A83126D1C0C28B4
:101010008A11A5258A1578296D1D8F283730031769
:101020008D0001308F008A1103136F238A1504305D
:101030008316C400FA3083120317C4008A11031305
:1010400063228A158316C40B1A288A1183123D263F
:101050008A1578088316C200C20803196B28740821
:10106000C3000730740743020319382803184528C2
:10107000430883120317C100FF30C2008A11031313
:101080007D248A158316C30A312841308312031741
:101090008D0001308F008A1103136F238A150230EF
:1010A0008316C400FA3083120317C4008A11031395
:1010B00063228A158316C40B522883126D114730A0
:1010C00003178D0001308F008A1103136F238A15D7
:1010D0008E288E2883164E30831203178D00013020
:1010E0008F008A1103136F238A1502308316C40000
:1010F000FA3083120317C4008A11031363228A157E
:101100008316C40B782883126D11583003178D0095
:1011100001308F008A1103136F238A1578296D1E01
:1011200009298A113D268A1578088316C200C2084B
:101130000319E5286530831203178D0001308F00F5
:101140008A1103136F238A1502308316C300FA3005
:1011500083120317C4008A11031363228A158316AE
:10116000C30BA72807307407C30083120317C100FD
:10117000031334080317C2008A1103137D248A1550
:101180006E3003178D0001308F008A1103136F2317
:101190008A1502308316C300FA3083120317C40085
:1011A0008A11031363228A158316C30BCC2883127A
:1011B0006D12753003178D0001308F008A110313F3
:1011C0006F238A150829082983167C308312031798
:1011D0008D0001308F008A1103136F238A150430AC
:1011E0008316C300FA3083120317C4008A11031355
:1011F00063228A158316C30BF22883126D12843082
:1012000003178D0001308F008A1103136F238A1595
:101210007829ED1F7829CD3003178D0000308F001D
:101220008A1103136F238A1508308316C600FA301B
:1012300083120317C4008A11031363228A158316CD
:10124000C60B1729C501C401C508031D4B29440855
:10125000303C031C4B2910304407F8004508FA00C5
:10126000013003180230FA077808C6007A08C70070
:101270003130440784008313451883170008C800E1
:101280004608840083134718831748088000C40A5F
:101290000319C50A2429C301C201C308031D6D290E
:1012A00042082F3C031C6D2910304207840083172D
:1012B0000008C600420883120317C10083160313F7
:1012C000460883120317C2008A1103137D248A156E
:1012D0008316C20A0319C30A4D298312ED13D430B1
:1012E00003178D0000308F008A1103136F238A15B6
:1012F000F4308316C200C301C40142084302031C38
:101300008429C208031DCD2AC408031DCD2A061056
:101310008312061083168610831286148316061114
:10132000831206158316861183128615143003174F
:10133000C4008A11031363228A15831608148312CA
:101340000818AB29831608148312081CA22931300F
:101350008316C40083128316881483128818B9294F
:10136000831688148312881CB02934308316C40075
:1013700083128316081583120819C72983160815C6
:101380008312081DBE2937308316C40083128316CA
:10139000881583128819D529831688158312881D0C
:1013A000CC292A308316C4008312831606108312B8
:1013B0000614831686108312861083160611831274
:1013C0000615831686118312861514300317C40080
:1013D0008A11031363228A158316081483120818CE
:1013E000FA29831608148312081CF1293230831657
:1013F000C40083128316881483128818082A83165F
:1014000088148312881CFF2935308316C400831288
:101410008316081583120819162A831608158312D5
:10142000081D0D2A38308316C400831283168815D0
:1014300083128819242A831688158312881D1B2A73
:1014400030308316C40083128316061083120614EC
:1014500083168610831286148316061183120611D2
:10146000831686118312861514300317C4008A115F
:10147000031363228A158316081483120818492A55
:10148000831608148312081C402A33308316C400C4
:1014900083128316881483128818572A8316881497
:1014A0008312881C4E2A36308316C400831283169A
:1014B000081583120819652A831608158312081D5A
:1014C0005C2A39308316C400831283168815831270
:1014D0008819732A831688158312881D6A2A233077
:1014E0008316C40083128316061083120614831613
:1014F000861083128614831606118312061583162E
:1015000086118312861114300317C4008A11031345
:1015100063228A158316081483120818982A8316E2
:1015200008148312081C8F2A41308316C4008312CA
:101530008316881483128818A62A831688148312A7
:10154000881C9D2A42308316C40083128316081516
:1015500083120819B42A831608158312081DAB2AB2
:1015600043308316C40083128316881583128819AA
:10157000C22A831688158312881DB92A443083161F
:10158000C400831205300317C4008A1103136322B9
:101590008A1505308316C3077D29C408031DD22A86
:1015A000FF30C4004408F8007808C100032841084F
:1015B000F80083120800F701F80183163E080310B3
:1015C0003F18F707F70CF80CBF18F707F70CF80CE3
:1015D0003F19F707F70CF80CBF19F707F70CF80CD1
:1015E0003F1AF707F70CF80CBF1AF707F70CF80CBF
:1015F0003F1BF707F70CF80CBF1BF707F70CF80CAD
:10160000831208000B088316BF0083128B13831606
:1016100003178C170C14000000000313BF1F132BBB
:1016200083128B178316831203178C0803193B2B25
:101630000D0883160313BF00831203170F088316C8
:101640000313C000831203170C08C3008A1103138D
:101650002C238A1583163F08831203178D008316E7
:1016600003134008831203178F008D0A03198F0A92
:101670000313022B03170313080001308316BF0066
:10168000C000C101C108031D912BF0018312EF01BD
:10169000F008031D792B6F08023C031C792B83167D
:1016A000400DF700F70DF70DF830F70577088312B6
:1016B0006F078316C2007008C3000318C30A4208EC
:1016C000CA008A118312CF248A1578088316C200B3
:1016D000A03083126F0784008313701883170008EB
:1016E00083164202031DBF018312EF0A0319F00A99
:1016F000482B8316BF080319862B0130C100400D0B
:10170000F400F40DF40DF830F405892B0130BF001E
:10171000C00A4008413C031D902B0130C100BF01AD
:0A172000422B3F08F8008312080076
:1020000003081F398300813083169900A630980099
:10201000903083129800FF30AB00AC01AD016D1021
:10202000ED106D11ED11ED126D13ED13F001EF01D7
:10203000F3010130F400FB01FC007E108316B101B6
:10204000B0011F149F141F159F1107309C008313AC
:10205000B601B701CE30B8001F1783121F179F13A8
:1020600083169F1383121F1483161F109F141F15AE
:102070009F15091283129412AB122B088316870046
:1020800083122B162B08831687008312AB112B08A3
:102090008316870001308312940000308316940069
:1020A0000108C73908388100831290010030F80018
:1020B000920000308316920007309C0005088500CE
:1020C0001030F700F70B622800001C0883120D1374
:1020D00083169D018C16C03083128B040030F800EB
:1020E0001F08C73978049F0083160811831208114E
:1020F00083168811831288110A12562A0A160A12A8
:10210000D72A0A16C93003178D0001308F000A1232
:1021100003136F230A1608308316BA00FA308312AD
:102120000317C4000A12031363220A168316BA0B9C
:102130008E280A128312BF230A168316B901390F9B
:10214000A228AF28390883120317C100FF30C2004C
:102150000A1203137D240A168316B90A9F28BA01AE
:102160003A08023C031CC1283A08CA000A1283122A
:10217000CF240A16780FBE280130F1008316BA0A60
:10218000B028F108031912294930831203178D0072
:1021900002308F000A1203136F230A160C308316C5
:1021A000BB00FA3083120317C4000A120313632220
:1021B0000A168316BB0BD1284E30831203178D00ED
:1021C00002308F000A1203136F230A16063083169B
:1021D000BB00FA3083120317C4000A1203136322F0
:1021E0000A168316BB0BE9280A128312BF230A16AC
:1021F0000A12AA260A160A127C270A1631308316FA
:10220000A700F108031D0A290A128312A5250A1640
:10221000102983160A128312A5250A16F101F3016B
:102220008316C1287308003A831203191B29013A47
:1022300003192C2AA82D0A12AA260A16730B212983
:102240002B2A01308316BA00BB00BC01BC08031D59
:102250007529F0018312EF01F008031D5D296F0855
:10226000023C031C5D2983163B0DF700F70DF70DAB
:10227000F830F705770883126F078316BE007008E1
:10228000BF000318BF0A3E08CA000A128312CF24F7
:102290000A1678088316BE00A03083126F078400E8
:1022A000831370188317000883163E02031DBA01BA
:1022B0008312EF0A0319F00A2C298316BA080319AE
:1022C0006A290130BC003B0DF400F40DF40DF83028
:1022D000F4056D290130BA00BB0A3B08413C031DDF
:1022E00074290130BC00BA0126293A08F800F80820
:1022F000031D9529D930831203178D0001308F00FB
:102300000A1203136F230A1606308316BA00FA3036
:1023100083120317C4000A12031363220A168316DA
:10232000BA0B872983121B2983160A1283127C2772
:102330000A1603308316BA000130BB00033074075D
:10234000BD003D08BC0003303D073C020319AA292B
:102350000318BE293C08CA000A128312CF240A16A9
:1023600078088316BE00A0303A0784008313000863
:102370003E02031DBB01BA0ABC0AA3293B0BD129AB
:1023800004303D07BE00CA000A128312CF240A1689
:102390007808313C031DCF290130F500D029F50123
:1023A00083163B08F800780B0C2A750BF029E130F6
:1023B000831203178D0001308F000A1203136F235D
:1023C0000A1606308316BA00FA3083120317C400C7
:1023D0000A12031363220A168316BA0BE4290B2A86
:1023E000EB30831203178D0001308F000A120313A4
:1023F0006F230A1606308316BA00FA3083120317C9
:10240000C4000A12031363220A168316BA0BFD29AD
:1024100083122B2A8316272AF530831203178D0087
:1024200001308F000A1203136F230A160C30831633
:10243000BA00FA3083120317C4000A12031363228E
:102440000A168316BA0B192A83121B2983160A123D
:102450008312BF230A16B12D8316BA01FD308312F1
:1024600003178D0001308F000A1203136F230A1621
:1024700006308316BE00FA3083120317C4000A1216
:10248000031363220A168316BE0B3B2A06308312FF
:1024900003178D0002308F000A1203136F230A16F0
:1024A00006308316BE00FA3083120317C4000A12E6
:1024B000031363220A168316BE0B532A0A128312D1
:1024C000AA260A1601308316BE00BF013F08023C4F
:1024D000031C7D2AA0303F07840083130008C0003E
:1024E0003F08CA000A128312CF240A1678088316FE
:1024F0004002031DBE01BF0A662A3E08F800F80824
:10250000031D9C2A0F30831203178D0002308F00A9
:102510000A1203136F230A1606308316BE00FA3020
:1025200083120317C4000A12031363220A168316C8
:10253000BE0B8F2A5E2AF52A0A1283127C270A16FE
:1025400001308316BE000330BF003F08063C031C69
:10255000BC2AA0303F07840083130008C0003F0856
:10256000CA000A128312CF240A1678088316400282
:10257000031DBE01BF0AA52A3E08F800F808031D86
:10258000DB2A1730831203178D0002308F000A12E6
:1025900003136F230A1606308316BE00FA30831227
:1025A0000317C4000A12031363220A168316BE0B14
:1025B000CE2A5E2AF52A1D30831203178D000230C1
:1025C0008F000A1203136F230A1606308316BE000B
:1025D000FA3083120317C4000A12031363220A1687
:1025E0008316BE0BE82A0130BA00BA080319A62DDB
:1025F000BB01BC013C08BE000A30BF000A128A15AC
:102600008312DB220A168A1178088316BE000C306A
:1026100083120317C3000A1203132C230A1659301E
:1026200003178D0000308F00831603133E088312BA
:1026300003178D0703188F0A0A128A150313022342
:102640000A168A118316BB08031DA62D0A128A15C5
:10265000831200200A168A1178088316BD003D08EF
:10266000343A831203193E2B023A0319482B773A66
:102670000319522B6B3A03196E2D742D8316BC0867
:10268000031D452B0230BC00462BBC03752D831265
:1026900083163C08013C03184F2BBC01502BBC0A8D
:1026A000752D83128316BC08031D922B27308312CD
:1026B00003178D0002308F000A1203136F230A16CE
:1026C0000130FB0006308316BE00FA308312031778
:1026D000C4000A12031363220A168316BE0B652B6D
:1026E0000A128312BF230A160A12AA260A160A120F
:1026F0007C270A1631308316A700F108031D862BAC
:102700000A128312A5250A168C2B83160A1283122D
:10271000A5250A16F101F3010A12BF230A16FB01CF
:102720006B2D83163C0B652C3330831203178D0001
:1027300002308F000A1203136F230A160630831625
:10274000BE00FA3083120317C4000A120313632277
:102750000A168316BE0BA12BDB30831203178D00E4
:1027600000308F000A1203136F230A16EE0183163E
:10277000BE01BE08031D642C0A128A1583120020B4
:102780000A168A117808F2007208413A0319CF2B11
:10279000023A0319442C693A03194B2C502CA030EF
:1027A0006E07840083138008031DF02BE5300317A8
:1027B0008D0000308F000A1203136F230A160430B5
:1027C0008316BF00FA3083120317C4000A120313E2
:1027D00063220A168316BF0BE22BAC2B422C83120A
:1027E0000A128A153D230A168A11780B2A2C7408BE
:1027F0008316BF00073074073F020319012C03182A
:102800000E2C3F0883120317C100FF30C2000A12CA
:1028100003137D240A168316BF0AFA2B5F30831236
:1028200003178D0001308F000A1203136F230A165D
:1028300004308316C000FA3083120317C4000A1252
:10284000031363220A168316C00B1B2C0130BE0033
:10285000422C8312EC3003178D0000308F000A12D7
:1028600003136F230A1604308316BF00FA30831255
:102870000317C4000A12031363220A168316BF0B40
:10288000362CAC2B632C8312EE010A1293260A1607
:102890008316632C831201308316BE00F30083126B
:1028A0006E08023C031C622C72080317C3000A1254
:1028B00003132C230A16A0306E07840083137208BA
:1028C0008000EE0A8316B92B6A2D3C08023C031DDA
:1028D0006A2D3E30831203178D0002308F000A12DA
:1028E00003136F230A1606308316BE00FA308312D4
:1028F0000317C4000A12031363220A168316BE0BC1
:10290000762CF430831203178D0000308F000A12EA
:1029100003136F230A16EE018316BE01BE08031DC2
:102920006A2D0A128A15831200200A168A11780865
:10293000F2007208413A0319A42C023A03194A2DF5
:10294000693A0319512D562DA0306E078400831368
:102950008008031DC52CFD3003178D0000308F004B
:102960000A1203136F230A1604308316BF00FA30CD
:1029700083120317C4000A12031363220A16831674
:10298000BF0BB72C812C482D83120A128A153D23C8
:102990000A168A11780B302D0C3003178D00013088
:1029A0008F000A1203136F230A168316BF01BF0894
:1029B000031D072D0A128A15831200200A168A1198
:1029C0007808F2007208313A0319ED2C013A031924
:1029D000F22C713A0319F72CFC2C31308316C0000D
:1029E000FD2C831230308316C000FD2C8312013081
:1029F0008316BF00FD2C83128316720883120317FF
:102A0000C3000A1203132C230A168316D72C07308F
:102A10007407C10083120317C10083160313400813
:102A200083120317C2000A1203137D240A161530FD
:102A300003178D0001308F000A1203136F230A164B
:102A400006308316C100FA3083120317C4000A123D
:102A5000031363220A168316C10B232D482D8312FC
:102A6000043003178D0001308F000A1203136F2307
:102A70000A1604308316BF00FA3083120317C4000D
:102A80000A12031363220A168316BF0B3C2D812CF6
:102A9000692D8312EE010A1293260A168316692DF8
:102AA000831201308316BE00F30083126E08023CCD
:102AB000031C682D72080317C3000A1203132C238A
:102AC0000A16A0306E078400831372088000EE0A95
:102AD00083168E2C83128316752D83120130831674
:102AE000BB00F301752D831283163C08BE000A302B
:102AF000BF000A128A158312DB220A168A1178088F
:102B00008316BE000C3083120317C3000A1203138E
:102B10002C230A16593003178D0000308F008316BE
:102B200003133E08831203178D0703188F0A0A1236
:102B30008A15031302230A168A1164300317C4008E
:102B40000A12031363220A16222B83168312B12D55
:102B5000D03003178D0001308F000A1203136F234A
:082B60000A1683161229630016
:02400E000A2F77
:00000001FF
;PIC16F877A
;CRC=A9B6  CREATED="24-nov-21 16:55"
